:060000000A128A110C280F
:10000800FE00030EF0000A08F1000A128A11A22865
:100018000A128A110F28F501F601F70183010A1265
:100028008A1116280A128A1160200A128A1183126C
:1000380003139F18202821282F281E08F700770867
:100048008700C730F4002828F40B27282B282C28F1
:10005800831203139F1404300A128A11B3200A1260
:100068008A1183120313880006183B283C283E286F
:1000780009106300831203130619432844284828EB
:100088000130F5000030F600061D4B284C281B28CF
:1000980075037604031D512852281B287708F2009F
:1000A80004300A128A1188200A128A11F501F60111
:1000B8001B280A128A110C286030831603138F003C
:1000C80088308B004D30831203139F00831603136F
:1000D8009F018316031789010830880083160313CC
:1000E80081010730860007309500023096000830FD
:1000F8008500870188018901831203138501860120
:100108008701880189010800F300831603178C18FA
:100118008E288F28A1287308831203178D00720870
:100128008C00831603178C130C158B1355308D0018
:10013800AA308D008C148B170C1108000B1CA528F5
:10014800A628AB28831203130608860009140B108F
:1001580071088A00700E8300FE0E7E0E0900F20000
:100168007208831203178D00831603178C130C145F
:08017800831203170C080800B4
:08400000FF3FFF3FFF3FFF3FC0
:04400E00D420FF3F7C
:00000001FF
